:100000000C9462000C948A000C948A000C948A0070
:100010000C948A000C948A000C948A000C948A0038
:100020000C948A000C948A000C948A000C9453055A
:100030000C948A000C948A000C948A000C948A0018
:100040000C94B1040C948A000C9421050C94FB04CC
:100050000C948A000C948A000C948A000C948A00F8
:100060000C948A000C948A000000000023002600F3
:10007000290000000000240027002A0000000000E2
:10008000250028002B0004040404040404040202D4
:100090000202020203030303030301020408102007
:1000A0004080010204081020010204081020000012
:1000B0000008000201000003040700000000000027
:1000C0000000590611241FBECFEFD8E0DEBFCDBF20
:1000D00011E0A0E0B1E0EAEEF3E102C005900D927C
:1000E000A432B107D9F721E0A4E2B1E001C01D922A
:1000F000AB3FB207E1F710E0C2E6D0E004C02197C1
:10010000FE010E94E809C136D107C9F70E94B7066F
:100110000C94F3090C940000CF92DF92EF92FF92BF
:10012000DC01A03282E0B8070CF03EC0B7FD06C08B
:10013000A53BB1052CF0A4EBB0E002C0A0E0B0E01C
:100140008091F90128E830E06901C81AD10887FDDB
:10015000D394CC0CDD1CCC0CDD1C0D2C000CEE085B
:10016000FF088091FA0128E532E0281B310987FD5C
:100170003395220F331F220F331FA901330F660B54
:10018000770B9A01AB012C193D094E095F090E94BA
:10019000D20724EB30E040E050E00E94A807C20EF6
:1001A000D31EE41EF51ED6019091F8019C3098F5FF
:1001B0008091F90148E850E0481B510987FD5395AB
:1001C000440F551F440F551FA417B5078CF080919D
:1001D000FA0128E532E0281B310987FD3395220F0B
:1001E000331F220F331FAD012A173B070CF4A9015F
:1001F00042505109440F551F2FB7F894892F90E0B2
:10020000FC01EE0FFF1F8E0F9F1FFC01ED52FE4FF2
:10021000528341832FBFFF90EF90DF90CF900895DE
:1002200090E0FC01E255FF4F2491FC01E656FF4FA0
:100230003491FC01EA57FF4FE491EE2309F43CC0EE
:10024000222339F1233091F038F42130A9F0223003
:1002500001F584B58F7D12C0273091F02830A1F0D0
:100260002430B9F4809180008F7D03C0809180009C
:100270008F77809380000DC084B58F7784BD09C0CF
:100280008091B0008F7703C08091B0008F7D809304
:10029000B000F0E0EE0FFF1FE458FF4FA591B491BE
:1002A0009FB7F894611104C08C913095382302C037
:1002B000EC913E2B3C939FBF0895CF93DF9390E04A
:1002C000FC01E656FF4F2491FC01EA57FF4F849151
:1002D000882361F190E0880F991FFC01EE58FF4FD1
:1002E000C591D491FC01E458FF4FA591B4916111DF
:1002F00009C09FB7F8948881209582238883EC9168
:100300002E230BC0623061F49FB7F8948881322F9E
:10031000309583238883EC912E2B2C939FBF06C0AE
:100320008FB7F894E8812E2B28838FBFDF91CF9170
:1003300008953FB7F8948091320190913301A091D4
:100340003401B091350126B5A89B05C02F3F19F0A7
:100350000196A11DB11D3FBFBA2FA92F982F882745
:10036000820F911DA11DB11DBC01CD0142E0660FA0
:10037000771F881F991F4A95D1F708958F929F92F2
:10038000AF92BF92CF92DF92EF92FF926B017C010E
:100390000E9499014B015C01C114D104E104F104F4
:1003A000F1F00E949901DC01CB0188199909AA0991
:1003B000BB09883E9340A105B10570F321E0C21A44
:1003C000D108E108F10888EE880E83E0981EA11C90
:1003D000B11CC114D104E104F10419F7DDCFFF9081
:1003E000EF90DF90CF90BF90AF909F908F90089547
:1003F000CF92DF92EF92FF920F931F93CF93DF93F1
:100400006C017A018B01C0E0D0E0CE15DF0581F0F0
:10041000D8016D918D01D601ED91FC910190F08193
:10042000E02DC6010995892B11F02196EECF7E01B2
:10043000C701DF91CF911F910F91FF90EF90DF9057
:10044000CF900895089580E090E00895FC01538DC9
:10045000448D252F30E0842F90E0821B930B54179E
:1004600010F0CF96089501970895FC01918D828D2B
:10047000981761F0828DDF01A80FB11D5D968C91F8
:10048000928D9F5F9F73928F90E008958FEF9FEF03
:100490000895FC01918D828D981731F0828DE80FBF
:1004A000F11D858D90E008958FEF9FEF0895FC0179
:1004B000918D228D892F90E0805C9F4F821B910946
:1004C0008F739927089586E391E00E94570221E0F7
:1004D000892B09F420E0822F0895FC01848DDF012F
:1004E000A80FB11DA35ABF4F2C91848D90E00196A7
:1004F0008F739927848FA689B7892C93A089B18996
:100500008C91837080648C93938D848D981306C036
:100510000288F389E02D80818F7D80830895EF929A
:10052000FF920F931F93CF93DF93EC0181E0888FAD
:100530009B8D8C8D981305C0E889F989808185FD94
:1005400026C0F62E0B8D10E00F5F1F4F0F73112783
:10055000E02E8C8DE8120CC00FB607FCFACFE889AC
:10056000F989808185FFF5CFCE010E946D02F1CF20
:100570008B8DFE01E80FF11DE35AFF4FF0829FB70C
:10058000F8940B8FEA89FB89808180620AC09FB74B
:10059000F894EE89FF896083E889F9898081837006
:1005A000806480839FBF81E090E0DF91CF911F91B5
:1005B0000F91FF90EF900895CF93DF93EC01888D1A
:1005C0008823C9F0EA89FB89808185FD05C0A88957
:1005D000B9898C9186FD0FC00FB607FCF5CF8081DD
:1005E00085FFF2CFA889B9898C9185FFEDCFCE0127
:1005F0000E946D02E7CFDF91CF91089580E090E0F7
:10060000892B29F00E94630281110C940000089547
:10061000009769F0FC0101900020E9F73197AF01E4
:10062000481B590BBC0186E391E00C94F80180E073
:1006300090E008950E94EE092F923F924F925F92B0
:100640006F927F928F929F92AF92BF92CF92DF92E2
:10065000EF92FF920F931F93CF93DF93CDB7DEB747
:10066000A2970FB6F894DEBF0FBECDBF60E086E064
:100670000E94100183E090E00197F1F761E086E0CD
:100680000E94100183E290E00197F1F760E086E0BC
:100690000E941001E1EAF0E06491EDE8F0E0E491FD
:1006A000F0E0EE0FFF1FE859FF4F8591949100E4B1
:1006B00012E42FE030E0462F0E9414066115710508
:1006C0008105910549F0DC01CB010196A11DB11D09
:1006D000BC01CD019F7003C060E070E0CB010E94BF
:1006E000B3086B017C01609328017093290180930A
:1006F0002A0190932B0120E030E0A9010E947808A4
:10070000811112C061E087E00E945D0160E087E036
:100710000E94100161E070E080E090E00E94BE0164
:1007200060E087E00E945D0128E23EE74CE05DE387
:10073000C701B6010E946A0920E030E040E05FE3B3
:100740000E946A0960932401709325018093260119
:100750009093270164E670E080E090E00E94BE0183
:1007600082E191E00E940803C0902401D09025010D
:10077000E0902601F0902701A7019601C701B6017C
:100780000E94D709882319F084E191E01AC046013C
:100790005701E894B7F82FEF3FEF4FE75FE7C50148
:1007A000B4010E94D70981110FC02FEF3FEF4FE72F
:1007B0005FE7C501B4010E94780818162CF488E19F
:1007C00091E00E940803A5C02FEF3FEF4FE75FE4E1
:1007D000C701B6010E94650918161CF48CE191E06E
:1007E000F0CF2FEF3FEF4FE75FECC701B6010E945C
:1007F000780887FDF3CF20E030E0A901C701B601FA
:100800000E94780887FF09C06DE286E391E00E94AC
:100810008F02F7FAF094F7F8F0942AE037ED43EA04
:100820005BE3C701B6010E940C084B015C010E940A
:1008300084086B017C010E94B3089B01AC01C501D7
:10084000B4010E940B084B015C0119A28E010F5DDF
:100850001F4F0AA3612E2AE0222E312C412C512C4D
:10086000C701B601A20191010E94DA0769017A016C
:10087000605DF80162938F01232B242B252B81F7D8
:10088000CF010E9408036EE286E391E00E948F028E
:1008900083E0F82E9AE0292E312C412C512CFA9429
:1008A000FF20B9F120E030E040E251E4C501B4019D
:1008B0000E946A094B015C010E9484089B0140E090
:1008C00050E019A20AA1162D762EC32ED42EE52EA5
:1008D000CA01B901A20191010E94DA07605DF80125
:1008E00062938F01211531054105510589F7CF012B
:1008F0000E940803672D7C2D8D2D9E2D0E94B3082C
:100900009B01AC01C501B4010E940B084B015C01C5
:10091000C6CF80E291E00E940803609124017091AB
:10092000250180912601909127010E947D08CB012D
:10093000A2960FB6F894DEBF0FBECDBFDF91CF9168
:100940001F910F91FF90EF90DF90CF90BF90AF90ED
:100950009F908F907F906F905F904F903F902F90DF
:1009600008951F920F920FB60F9211242F933F9369
:100970008F939F93AF93BF9380912E0190912F01FE
:10098000A0913001B091310130912D0123E0230F6E
:100990002D3720F40196A11DB11D05C026E8230FB7
:1009A0000296A11DB11D20932D0180932E019093DD
:1009B0002F01A0933001B0933101809132019091C9
:1009C0003301A0913401B09135010196A11DB11DF3
:1009D0008093320190933301A0933401B093350199
:1009E000BF91AF919F918F913F912F910F900FBE2B
:1009F0000F901F9018951F920F920FB60F9211240F
:100A00002F933F934F935F936F937F938F939F9316
:100A1000AF93BF93EF93FF9386E391E00E946D0243
:100A2000FF91EF91BF91AF919F918F917F916F91C6
:100A30005F914F913F912F910F900FBE0F901F909C
:100A400018951F920F920FB60F9211242F938F9328
:100A50009F93EF93FF93E0914601F09147018081CE
:100A6000E0914C01F0914D0182FD12C09081809186
:100A70004F018F5F8F7320915001821751F0E091E9
:100A80004F01F0E0EA5CFE4F958F80934F0101C06B
:100A90008081FF91EF919F918F912F910F900FBEC9
:100AA0000F901F9018951F920F920FB60F9211245E
:100AB0002F933F934F935F936F937F938F939F9366
:100AC000AF93BF93EF93FF9380912C0187FF05C0F5
:100AD00010928500109284001BC020912C01022EE0
:100AE000000C330B8091F70190E02817390784F44C
:100AF00080912C01082E000C990BFC01EE0FFF1FBA
:100B00008E0F9F1FFC01ED52FE4F808186FD15C0A8
:100B100080912C018F5F80932C0120912C01022E5B
:100B2000000C330B8091F70190E028173907C4F4CB
:100B300080912C018C3064F113C080912C01082E1F
:100B4000000C990BFC01EE0FFF1F8E0F9F1FFC0185
:100B5000ED52FE4F808160E08F730E941001D8CF6C
:100B60008091840090918500049680349C4918F40B
:100B700080E49CE905C080918400909185000496F2
:100B800090938900809388008FEF80932C013BC065
:100B9000209184003091850080912C01082E000C5A
:100BA000990BFC01EE0FFF1F8E0F9F1FFC01ED52F2
:100BB000FE4F81819281820F931F909389008093D1
:100BC000880080912C01082E000C990BFC01EE0F7F
:100BD000FF1F8E0F9F1FFC01ED52FE4F808186FF8D
:100BE00012C080912C01082E000C990BFC01EE0F15
:100BF000FF1F8E0F9F1FFC01ED52FE4F808161E0B1
:100C00008F730E941001FF91EF91BF91AF919F915F
:100C10008F917F916F915F914F913F912F910F90A5
:100C20000FBE0F901F901895CF92DF92EF92FF9218
:100C30000F931F93E82FF92F05C0015011092109C7
:100C4000310961F1908196239417B9F305C00150E1
:100C500011092109310911F1908196239413F7CFDD
:100C6000C12CD12CE12CF12C0AC08FEFC81AD80A64
:100C7000E80AF80A0C151D052E053F0579F080815C
:100C80008623841791F36C2D7D2D8E2D9F2D1F9122
:100C90000F91FF90EF90DF90CF90089560E070E0AB
:100CA00080E090E01F910F91FF90EF90DF90CF9048
:100CB0000895109239011092380188EE93E0A0E077
:100CC000B0E080933A0190933B01A0933C01B09334
:100CD0003D0184E091E0909337018093360185ECEB
:100CE00090E0909343018093420184EC90E09093D4
:100CF00045018093440180EC90E0909347018093FC
:100D0000460181EC90E0909349018093480182EC88
:100D100090E090934B0180934A0186EC90E0909391
:100D20004D0180934C0110924F011092500110928E
:100D30005101109252018091F7018C30A0F491E0A2
:100D4000980F9093F7018093F80190E0FC01EE0F6B
:100D5000FF1F8E0F9F1FFC01ED52FE4F88EB9BE0A3
:100D60009283818308958FEF8093F801089578949A
:100D700084B5826084BD84B5816084BD85B58260A0
:100D800085BD85B5816085BD80916E008160809351
:100D90006E001092810080918100826080938100BA
:100DA00080918100816080938100809180008160CA
:100DB000809380008091B10084608093B100809125
:100DC000B00081608093B00080917A00846080934D
:100DD0007A0080917A00826080937A0080917A0014
:100DE000816080937A0080917A00806880937A0095
:100DF0001092C1008091F8018C3008F051C061E080
:100E000083E00E945D018091F801E82FF0E09F01EE
:100E1000220F331FE20FF31FED52FE4F9081907CA3
:100E2000936090831092F9011092FA016CE00E9495
:100E3000DC099CE0899FB001112440E050E09B0157
:100E4000240F351FF901EE0FFF1F2E0F3F1FF90171
:100E5000ED52FE4F908196FD16C04F5F5F4F4C30B4
:100E6000510569F781110FC01092800082E08093D4
:100E700081001092850010928400B19A80916F00D9
:100E8000826080936F00E091F801F0E0CF01880F5D
:100E9000991FE80FF91FED52FE4F80818064808317
:100EA00061E086E00E945D0160E087E00E945D01F4
:100EB000E0914601F091470182E08083E091420198
:100EC000F09143011082E0914401F09145018FECD3
:100ED000808310924E01E0914A01F0914B0186E02F
:100EE0008083E0914801F091490180818061808395
:100EF000E0914801F0914901808188608083E09110
:100F00004801F0914901808180688083E091480127
:100F1000F091490180818F7D80830E941C03459759
:100F200024F084EB90E00E948C000E941C03459703
:100F300021F48AE590E00E948C000E941C034697F1
:100F400024F480E090E00E948C000E94FE02E5CF35
:100F5000052E97FB1EF400940E94BF0757FD07D093
:100F60000E94DA0707FC03D04EF40C94BF0750959B
:100F70004095309521953F4F4F4F5F4F0895909585
:100F80008095709561957F4F8F4F9F4F08950E9478
:100F9000FC07A59F900DB49F900DA49F800D911DFF
:100FA00011240895B7FF0C94C7070E94C707821B3E
:100FB000930B0895A1E21A2EAA1BBB1BFD010DC0C5
:100FC000AA1FBB1FEE1FFF1FA217B307E407F507F9
:100FD00020F0A21BB30BE40BF50B661F771F881FD5
:100FE000991F1A9469F760957095809590959B016B
:100FF000AC01BD01CF010895A29FB001B39FC00114
:10100000A39F700D811D1124911DB29F700D811D34
:101010001124911D08955058BB27AA270E94230828
:101020000C942B090E941D0938F00E94240920F01D
:1010300039F49F3F19F426F40C941A090EF4E09544
:10104000E7FB0C941409E92F0E943C0958F3BA17E6
:10105000620773078407950720F079F4A6F50C94CE
:101060005E090EF4E0950B2EBA2FA02D0B01B901ED
:1010700090010C01CA01A0011124FF27591B99F00E
:10108000593F50F4503E68F11A16F040A22F232F1A
:10109000342F4427585FF3CF469537952795A7956A
:1010A000F0405395C9F77EF41F16BA0B620B730B11
:1010B000840BBAF09150A1F0FF0FBB1F661F771F82
:1010C000881FC2F70EC0BA0F621F731F841F48F437
:1010D000879577956795B795F7959E3F08F0B0CFC0
:1010E0009395880F08F09927EE0F979587950895A7
:1010F0000E94F00808F481E008950E948408689432
:10110000B1110C945F0908950E94440988F09F571B
:1011100098F0B92F9927B751B0F0E1F0660F771F1B
:10112000881F991F1AF0BA95C9F714C0B13091F011
:101130000E945E09B1E008950C945E09672F782F34
:101140008827B85F39F0B93FCCF3869577956795D6
:10115000B395D9F73EF490958095709561957F4F42
:101160008F4F9F4F0895E89409C097FB3EF49095E8
:101170008095709561957F4F8F4F9F4F9923A9F070
:10118000F92F96E9BB279395F695879577956795FF
:10119000B795F111F8CFFAF4BB0F11F460FF1BC043
:1011A0006F5F7F4F8F4F9F4F16C0882311F096E9D6
:1011B00011C0772321F09EE8872F762F05C0662384
:1011C00071F096E8862F70E060E02AF09A95660F3D
:1011D000771F881FDAF7880F9695879597F90895F6
:1011E000990F0008550FAA0BE0E8FEEF1616170638
:1011F000E807F907C0F012161306E407F50798F0A0
:10120000621B730B840B950B39F40A2661F0232BB8
:10121000242B252B21F408950A2609F4A140A69534
:101220008FEF811D811D089597F99F6780E870E019
:1012300060E008959FEF80EC089500240A9416164C
:10124000170618060906089500240A9412161306B4
:10125000140605060895092E0394000C11F4882342
:1012600052F0BB0F40F4BF2B11F460FF04C06F5F5E
:101270007F4F8F4F9F4F089557FD9058440F551F34
:1012800059F05F3F71F04795880F97FB991F61F008
:101290009F3F79F087950895121613061406551F7F
:1012A000F2CF4695F1DF08C0161617061806991FEB
:1012B000F1CF86957105610508940895E894BB27E0
:1012C00066277727CB0197F908950E94F00808F464
:1012D0008FEF08950E947D090C942B090E941D092F
:1012E00038F00E94240920F0952311F00C94140981
:1012F0000C941A0911240C945F090E943C0970F3A4
:10130000959FC1F3950F50E0551F629FF001729FAA
:10131000BB27F00DB11D639FAA27F00DB11DAA1FB9
:10132000649F6627B00DA11D661F829F2227B00D06
:10133000A11D621F739FB00DA11D621F839FA00D91
:10134000611D221F749F3327A00D611D231F849FE1
:10135000600D211D822F762F6A2F11249F57504038
:101360009AF0F1F088234AF0EE0FFF1FBB1F661FB3
:10137000771F881F91505040A9F79E3F510580F07C
:101380000C9414090C945F095F3FE4F3983ED4F386
:10139000869577956795B795F795E7959F5FC1F720
:1013A000FE2B880F911D9695879597F908950E94B9
:1013B000F008880B990B0895991B79E004C0991FD8
:1013C000961708F0961B881F7A95C9F7809508959F
:1013D000EE0FFF1F0590F491E02D099481E090E05D
:0A13E000F8940C94F309F894FFCF81
:1013EA00000000008F02F8012602DC0257023502D3
:1013FA00490209006E616E00696E66006F766600CA
:04140A000D0A0000C7
:00000001FF
