:100000000C94E2000C940A010C940A010C940A016D
:100010000C940A010C940A010C940A010C940A0134
:100020000C940A010C940A010C94BA040C942C054B
:100030000C940A010C940A010C940A010C940A0114
:100040000C940A010C940A010C940A010C940A0104
:100050000C940A010C940A010C940A010C9470048B
:100060000C940A010C940A010C940A010C940A01E4
:100070000C940A010C940A010C940A010C940A01D4
:100080000C940A010C940A010C940A010C940A01C4
:100090000C940A010C940A010C940A010C940A01B4
:1000A0000C940A010C940A010C940A018A018D0136
:1000B0007C0180018401AE01AE01AE019101950188
:1000C00099019F01A301AE01A901000000002300D6
:1000D000260029002C002F00080B0002020201005C
:1000E000090400000102020000052400100105249B
:1000F000010101042402060524060001070581030D
:1001000010004009040100020A0000000705020275
:1001100040000007058302400000040309041201A7
:100120000002EF020140412341800001010203016E
:1001300041726475696E6F204C4C43004172647566
:10014000696E6F2059756E000000000024002700C2
:100150002A002D00300000000000250028002B00A0
:100160002E00310004040404040304050202020208
:100170000403020202020606060606060404020240
:100180000204040408020110408040102040804016
:1001900080080204018040201002011080102040DD
:1001A00040200000000200090F0000030401000CC1
:1001B000000000000000000000000000000000003F
:1001C0000000FA0811241FBECFEFDAE0DEBFCDBF7A
:1001D00011E0A0E0B1E0E8E4F3E102C005900D9287
:1001E000A832B107D9F721E0A8E2B1E001C01D9221
:1001F000AB39B207E1F710E0C2EED0E004C02197BE
:10020000FE010E949709C13ED107C9F70E94AF07BE
:100210000C94A2090C94000020914A01211103C002
:100220008FEF9FEF08955FB7F89422E02093E900E5
:100230002091F20030E01216130614F421E030E0B1
:10024000422FFC0184E6415038F028988093490100
:100250009091F1009193F7CF2115310521F0809114
:10026000F200882319F05FBFC90108958BE68093DF
:10027000E800F9CF2FB7F89483E08093E9009091DC
:10028000E800892F807295FF04C09091F20080E40D
:10029000891B2FBF08958091410181110DC082E01B
:1002A00080933D0184E080933E01109240011092C2
:1002B0003F0181E0809341018DE391E00895362F65
:1002C00090E0FC01EE55FE4F4491FC01ED57FE4FCE
:1002D0002491FC01EC59FE4F8491882309F452C00B
:1002E0004423E1F150E0FA013197EF30F105B0F528
:1002F000EA5AFF4F0C949709909180009F7707C0AE
:10030000909180009F7D03C090918000977F909393
:10031000800024C094B59F7702C094B59F7D94BDA2
:100320001DC0909190009F7707C0909190009F7D95
:1003300003C090919000977F909390000FC0909190
:10034000C0009F7703C09091C0009F7D9093C00034
:1003500005C09091C200977F9093C200E82FF0E013
:10036000EE0FFF1FEA5AFE4FA591B4919FB7F89484
:10037000311104C08C912095282302C0EC912E2BC2
:100380002C939FBF0895CF93DF9390E0FC01ED572E
:10039000FE4F2491FC01EC59FE4F8491882361F1BA
:1003A00090E0880F991FFC01E85BFE4FC591D49146
:1003B000FC01EA5AFE4FA591B491611109C09FB7A3
:1003C000F8948881209582238883EC912E230BC09A
:1003D000623061F49FB7F8948881322F309583237F
:1003E0008883EC912E2B2C939FBF06C08FB7F89477
:1003F000E8812E2B28838FBFDF91CF9108953FB7DF
:10040000F8948091390190913A01A0913B01B0910B
:100410003C0126B5A89B05C02F3F19F00196A11DF0
:10042000B11D3FBFBA2FA92F982F8827820F911D8A
:10043000A11DB11DBC01CD0142E0660F771F881FD1
:10044000991F4A95D1F708958F929F92AF92BF92CC
:10045000CF92DF92EF92FF926B017C010E94FF012D
:100460004B015C01C114D104E104F104F1F00E94DC
:10047000FF01DC01CB0188199909AA09BB09883E53
:100480009340A105B10570F321E0C21AD108E1083B
:10049000F10888EE880E83E0981EA11CB11CC114DF
:1004A000D104E104F10419F7DDCFFF90EF90DF9064
:1004B000CF90BF90AF909F908F90089540912E0164
:1004C00050912F0120912C0130912D01421753079B
:1004D000B4F49091E8009570E1F39091E80092FDFA
:1004E00019C08093F10080912E0190912F01019607
:1004F0008F739927892B19F48EEF8093E8008091F0
:100500002E0190912F01019690932F0180932E013F
:1005100081E0089580E00895DF92EF92FF920F93BB
:100520001F93CF93DF93D82EF92EE42E062F10E0E1
:10053000C8010196880F0E945E0283E00E945E025D
:10054000CD2DDF2D0C0F1D1FC017D10789F0E7FE41
:1005500003C0FE01849101C088810E945E02F82ED2
:1005600080E00E945E028F2121968111EDCF01C0B3
:1005700081E0DF91CF911F910F91FF90EF90DF907D
:100580000895DF92EF92FF920F931F93CF93DF9323
:10059000D82E8A017B01E40EF51EEB01CE15DF0596
:1005A00071F0D7FE03C0FE01849101C088810E94D2
:1005B0005E0221968111F2CF8FEF9FEF01C0C8013B
:1005C000DF91CF911F910F91FF90EF90DF900895F1
:1005D0000F931F93CF93DF931F92CDB7DEB782E0C7
:1005E000898342E450E068ED70E080E80E94C10237
:1005F0000E944B01DC0112960D911C91139701157D
:10060000110589F0D801ED91FC910280F381E02D74
:10061000BE016F5F7F4FC801099597FD04C0F801C7
:1006200000851185ECCF89810F90DF91CF911F91CB
:100630000F910895615030F02091F100FC0120836A
:100640000196F8CF289884E6809349010895CF92C7
:10065000DF92EF92FF920F931F93CF93DF936C0182
:100660007A018B01C0E0D0E0CE15DF0581F0D80122
:100670006D918D01D601ED91FC910190F081E02DFD
:10068000C6010995892B11F02196EECF7E01C70195
:10069000DF91CF911F910F91FF90EF90DF90CF905E
:1006A00008958F929F92AF92BF92CF92DF92EF9276
:1006B000FF920F931F93CF93DF936C017B018A010D
:1006C00080910B01882309F45CC080914A01882342
:1006D00009F457C08091320180FF05C08091E0008D
:1006E00082608093E000E801B12C8AEFA82E93E0AD
:1006F000892E2AE3922E209711F4BB20D9F10E9473
:100700003A0181110AC0AA94AA20D9F161E070E0EF
:1007100080E090E00E942402EECF282F30E0C21744
:10072000D3070CF48C2F9FB7F8948092E9002091A6
:10073000E80025FF1DC0282F30E0C21BD30BF701B6
:10074000815020F041914093F100FACFE20EF31E68
:10075000BB2019F09092E8000AC08091E80085FD66
:1007600007C09092E800BB24B394209709F0B12C05
:100770009FBFC1CF5D9884E68093330110161106A8
:1007800044F081E090E0F6019383828380E090E082
:1007900001C0C801DF91CF911F910F91FF90EF90A1
:1007A000DF90CF90BF90AF909F908F900895CF93A0
:1007B000DF931F92CDB7DEB76983DC01ED91FC9129
:1007C0000280F381E02D41E050E0BE016F5F7F4F7A
:1007D00009950F90DF91CF91089583E08093E90010
:1007E0008091F200882319F08AE38093E80008954D
:1007F0000E943A0190E00895CF93DF931F92CDB706
:10080000DEB7FC018485958597FD05C02FEF3FEF8E
:10081000358724870BC0CE0101960E940C010197F9
:1008200019F4898190E002C08FEF9FEF0F90DF9164
:10083000CF9108950F931F93CF93DF931F92CDB75E
:10084000DEB78C01FC018485958597FF0EC0CE0133
:1008500001960E940C01019719F4898190E002C071
:100860008FEF9FEFF80195878487F8018485958540
:100870000F90DF91CF911F910F910895FC01848516
:10088000958597FD0BC09FB7F89482E08093E900AF
:100890008091F2009FBF90E0019608959FB7F89471
:1008A00082E08093E9008091F2009FBF90E008957C
:1008B000089580E090E00895009769F0FC010190B0
:1008C0000020E9F73197AF01481B590BBC018BE4BD
:1008D00091E00C94510380E090E008950E949D09FE
:1008E0001F920F920FB60F9211242F933F938F9365
:1008F0009F93AF93BF938091350190913601A09162
:100900003701B09138013091340123E0230F2D37A6
:1009100020F40196A11DB11D05C026E8230F029603
:10092000A11DB11D209334018093350190933601B0
:10093000A0933701B09338018091390190913A0129
:10094000A0913B01B0913C010196A11DB11D809386
:10095000390190933A01A0933B01B0933C01BF91C0
:10096000AF919F918F913F912F910F900FBE0F905C
:100970001F9018951F920F920FB60F9211248F930C
:100980009F938091E1009091E100937F9093E1002B
:1009900083FF0FC01092E90091E09093EB0010925A
:1009A000EC0092E39093ED0010924A0198E090934E
:1009B000F00082FF20C093E09093E9009091F20054
:1009C000992319F09AE39093E800909133019923C9
:1009D00039F090913301915090933301992389F12B
:1009E00090914901992339F0909149019150909348
:1009F0004901992341F184FF10C08091E2008E7E6D
:100A000081608093E2008091E1008F7E8093E1001D
:100A1000809132018E7E806111C080FF16C080916E
:100A2000E2008E7E80618093E2008091E1008E7E04
:100A30008093E100809132018E7E8160809332014B
:100A400004C05D9ACDCF289AD6CF9F918F910F90F9
:100A50000FBE0F901F9018951F920F920FB60F9216
:100A60001124CF92DF92EF92FF920F931F932F9357
:100A70003F934F935F936F937F938F939F93AF9326
:100A8000BF93EF93FF93CF93DF93CDB7DEB76C9710
:100A9000DEBFCDBF1092E9008091E80083FFFBC16B
:100AA00068E0CE0145960E941A0382EF8093E80029
:100AB0008D8987FF05C09091E80090FFFCCF03C0AF
:100AC0009EEF9093E800982F907609F0C6C09E891B
:100AD0004F89588D2F89F88C91110CC0803829F4DA
:100AE000809131018093F10002C01092F1001092C8
:100AF000F10045C1913051F4811141C1413051059E
:100B000009F03DC1809131018D7F0BC0933061F4BC
:100B1000811135C14130510509F031C18091310158
:100B20008260809331012BC1953049F48091E800B7
:100B300080FFFCCF822F80688093E30020C1963035
:100B400009F05EC00B8D1C8D22E01092E90010921E
:100B50002F0110922E01F21232C010922D0110922C
:100B60002C010E94E80299E0BE016F5F7F4FDB011C
:100B7000E92F1D92EA95E9F79983FA8291E09E8325
:100B800090EA98879AEF998720912E0130912F0152
:100B9000275F3F4F3C832B838D831092E900109297
:100BA0002F0110922E0110932D0100932C0149E08A
:100BB00050E080E00E94C1020E94E802E0C0109371
:100BC0002D0100932C010E944B01DC0112960D9126
:100BD0001C9113970115110509F4BBC0D801ED91C3
:100BE000FC910480F581E02DBE016B5E7F4FC80152
:100BF0000995009709F0C7C0F80100851185EACF73
:100C0000973009F445C1983021F481E08093F100D8
:100C1000B6C0993009F0B3C0837009F039C1EFE173
:100C2000F1E081E031E096E32081211109C08EE7F7
:100C30008093EA001092EA008F8980934A019FC056
:100C40008093E9003093EB0021912093EC00909386
:100C5000ED008F5F873041F7EACF8B8D9C8D10922E
:100C6000E90010922F0110922E0190932D01809394
:100C70002C01898D811153C08E899D89913A49F447
:100C8000813209F005C147E050E064E071E080E0A6
:100C9000BBC0913209F0FCC0833269F48F89988D12
:100CA000A0E0B0E08093000190930101A0930201C5
:100CB000B093030164C0803269F48091E80082FF40
:100CC000FCCF67E084E091E00E941A038BEF8093F1
:100CD000E80055C0823209F052C08F8980930B0121
:100CE000EEEFFFE7859194918B3F9C4D19F0E0E08A
:100CF000F8E002C0EEEFFAE0809104019091050166
:100D0000A0910601B0910701803B9440A105B10577
:100D100009F09EC080910B0180FF79C099C00E94AC
:100D20004B01FC01028113810115110509F4B0C0CA
:100D3000D801ED91FC910190F081E02DBE016B5E38
:100D40007F4FC801099581111AC0F80100851185EE
:100D5000EBCFF1E0FF1609F44EC0F3E0FF1298C0AC
:100D60008F89882309F44AC0823089F440E86BE017
:100D70008CE391E00E948C02882309F489C08EEFF5
:100D80008093E80088C018161906CCF381C0813022
:100D900029F440E86BE080E391E0ECCF833009F088
:100DA00077C00E944B01DC011296ED90FC901397E6
:100DB0008E010F5F1F4F6801E114F10479F0D70134
:100DC000ED91FC910680F781E02DB801C7010995EE
:100DD000080F111DF701E084F184EECFD8011C92B9
:100DE000F60101900020E9F73197BF016C197D09E8
:100DF00040E0C601BFCF6EE171E002C06AE171E080
:100E0000FB01449150E080E80E94C102B8CFEE3F60
:100E10002AE0F20751F0808191818737A7E79A078E
:100E200021F09093FF0A8093FE0A87E797E791836A
:100E3000808380916000809330019BE088E10FB651
:100E4000F894A895809360000FBE9093600097CFB0
:100E5000808191818737974709F091CFA89580913C
:100E60006000886180936000809130018093600011
:100E7000EE3FBAE0FB0739F08091FE0A9091FF0A3D
:100E8000918380837CCF1092FF0A1092FE0A77CF65
:100E900081E28093EB006C960FB6F894DEBF0FBE34
:100EA000CDBFDF91CF91FF91EF91BF91AF919F9116
:100EB0008F917F916F915F914F913F912F911F91F2
:100EC0000F91FF90EF90DF90CF900F900FBE0F909B
:100ED0001F901895CF92DF92EF92FF920F931F937E
:100EE000E82FF92F05C0015011092109310961F1DD
:100EF000908196239417B9F305C001501109210977
:100F0000310911F1908196239413F7CFC12CD12C84
:100F1000E12CF12C0AC08FEFC81AD80AE80AF80AA7
:100F20000C151D052E053F0579F080818623841759
:100F300091F36C2D7D2D8E2D9F2D1F910F91FF9084
:100F4000EF90DF90CF90089560E070E080E090E057
:100F50001F910F91FF90EF90DF90CF900895CF9366
:100F6000DF93CDB7DEB7A1970FB6F894DEBF0FBE03
:100F7000CDBF789484B5826084BD84B5816084BD22
:100F800085B5826085BD85B5816085BD80916E0027
:100F9000816080936E001092810080918100826058
:100FA0008093810080918100816080938100809195
:100FB00080008160809380008091910082608093A6
:100FC00091008091910081608093910080919000C8
:100FD0008160809390008091C10084608093C10003
:100FE0008091C10082608093C1008091C1008160C6
:100FF0008093C1008091C30081608093C300809181
:10100000C00082608093C0008091C20081608093A4
:10101000C20080917A00846080937A0080917A0087
:10102000826080937A0080917A00816080937A0058
:1010300080917A00806880937A0010924A01109221
:101040003101109232018091D70081608093D700E6
:1010500080EA8093D80089B5806189BD89B58260B6
:1010600089BD09B400FEFDCF61E070E080E090E052
:101070000E9424028091D8008F7C80618093D800E8
:101080008091E000807F8093E0008091E1008E7E7F
:101090008093E1008DE08093E200559A209A61E010
:1010A00086E00E94C30160E087E00E94C3018FEFE9
:1010B0009FEF909358018093570123E0E22EF12C8B
:1010C00033E2C32ED12C912C812C312C212C4AE0DF
:1010D000442E512C612C712C90E0A92E90E0B92E59
:1010E00060E086E00E945F01C7010197F1F761E0CF
:1010F00086E00E945F01C6010197F1F760E086E09B
:101100000E945F01EAE8F1E06491EBE6F1E084918E
:10111000E82FF0E0EE0FFF1FE653FF4F859194910B
:1011200000E412E42FE030E0462F0E946A076115C8
:1011300071058105910549F0DC01CB010196A11DE6
:10114000B11DBC01CD019F7003C060E070E0CB0118
:101150000E941409609328017093290180932A0149
:1011600090932B0120E030E0A9010E940F0981112A
:1011700012C061E087E00E94C30160E087E00E9446
:101180005F0161E070E080E090E00E94240260E096
:1011900087E00E94C30164E670E080E090E00E9476
:1011A0002402292D382D432D522D19A28E010F5DB9
:1011B0001F4FCA01B901A30192010E947509605D28
:1011C000F80162938F01211531054105510589F719
:1011D000CF010E945C0442E050E065E271E08BE4E4
:1011E00091E00E945103A114B10409F479CF0E9447
:1011F000000072CFEBE4F1E01382128288EE93E0FC
:10120000A0E0B0E084839583A683B78380E191E07A
:10121000918380838FEF9FEF9587848708950E9445
:10122000510908F481E00895E89409C097FB3EF461
:1012300090958095709561957F4F8F4F9F4F992323
:10124000A9F0F92F96E9BB279395F69587957795A1
:101250006795B795F111F8CFFAF4BB0F11F460FF61
:101260001BC06F5F7F4F8F4F9F4F16C0882311F0B9
:1012700096E911C0772321F09EE8872F762F05C0CD
:10128000662371F096E8862F70E060E02AF09A9568
:10129000660F771F881FDAF7880F9695879597F95D
:1012A0000895990F0008550FAA0BE0E8FEEF1616F7
:1012B0001706E807F907C0F012161306E407F5074A
:1012C00098F0621B730B840B950B39F40A2661F0BE
:1012D000232B242B252B21F408950A2609F4A14061
:1012E000A6958FEF811D811D0895A1E21A2EAA1BDC
:1012F000BB1BFD010DC0AA1FBB1FEE1FFF1FA217C6
:10130000B307E407F50720F0A21BB30BE40BF50BC2
:10131000661F771F881F991F1A9469F7609570954B
:10132000809590959B01AC01BD01CF010895EE0F12
:10133000FF1F0590F491E02D099481E090E0F8946E
:081340000C94A209F894FFCF00
:10134800FFFFFFFF00E100000000000000000000B8
:10135800D7035103F803ED033E04FC031A0400C14C
:0813680080810000000D0A0065
:00000001FF
