:100000000C9462000C948A000C948A000C948A0070
:100010000C948A000C948A000C948A000C941A03A5
:100020000C948A000C948A000C948A000C948A0028
:100030000C948A000C948A000C948A000C948A0018
:100040000C9478020C948A000C94E8020C94C2027E
:100050000C948A000C948A000C948A000C948A00F8
:100060000C948A000C948A00000000080002010031
:100070000003040700000000000000000000000072
:10008000240027002A000000000023002600290089
:1000900000000000250028002B00040404040404D0
:1000A0000404020202020202030303030303010227
:1000B00004081020408001020408102001020408F6
:1000C00010203F0311241FBECFEFD8E0DEBFCDBF0D
:1000D00011E0A0E0B1E0ECEBFBE002C005900D9276
:1000E000A631B107D9F721E0A6E1B1E001C01D9228
:1000F000A43DB207E1F710E0C2E6D0E004C02197CA
:10010000FE010E94D105C136D107C9F70E94AC0398
:100110000C94DC050C94000090E0FC01E255FF4FCC
:100120002491FC01E656FF4F8491882399F090E0DA
:10013000880F991FFC01E458FF4FA591B491FC0171
:10014000E057FF4F859194918FB7F894EC91E22B93
:10015000EC938FBF089590E0FC01E859FF4F249184
:10016000FC01E255FF4F3491FC01E656FF4FE4914C
:10017000EE2309F43CC0222339F1233091F038F406
:100180002130A9F0223001F584B58F7D12C02730CF
:1001900091F02830A1F02430B9F4809180008F7D57
:1001A00003C0809180008F77809380000DC084B55C
:1001B0008F7784BD09C08091B0008F7703C0809194
:1001C000B0008F7D8093B000F0E0EE0FFF1FE0578E
:1001D000FF4FA591B4919FB7F894611104C08C9121
:1001E0003095382302C0EC913E2B3C939FBF08957D
:1001F0003FB7F8948091210190912201A0912301B1
:10020000B091240126B5A89B05C02F3F19F0019697
:10021000A11DB11D3FBFBA2FA92F982F8827820F8C
:10022000911DA11DB11DBC01CD0142E0660F771FDC
:10023000881F991F4A95D1F708958F929F92AF9288
:10024000BF92CF92DF92EF92FF920E94F8004B0193
:100250005C0182E3C82ED12CE12CF12C0E94F80025
:10026000DC01CB0188199909AA09BB09883E934092
:10027000A105B10598F321E0C21AD108E108F108FF
:1002800088EE880E83E0981EA11CB11CC114D10415
:10029000E104F10419F7FF90EF90DF90CF90BF9049
:1002A000AF909F908F900895CF92DF92EF92FF9240
:1002B0000F931F93CF93DF936C017A018B01C0E002
:1002C000D0E0CE15DF0581F0D8016D918D01D6010A
:1002D000ED91FC910190F081E02DC6010995892BEB
:1002E00011F02196EECF7E01C701DF91CF911F91D2
:1002F0000F91FF90EF90DF90CF900895089580E0E8
:1003000090E00895FC01538D448D252F30E0842F1B
:1003100090E0821B930B541710F0CF96089501972D
:100320000895FC01918D828D981761F0828DDF0117
:10033000A80FB11D5D968C91928D9F5F9F73928FD8
:1003400090E008958FEF9FEF0895FC01918D828DCD
:10035000981731F0828DE80FF11D858D90E008959A
:100360008FEF9FEF0895FC01918D228D892F90E0F2
:10037000805C9F4F821B91098F739927089585E2B6
:1003800091E00E94B30121E0892B09F420E0822F43
:100390000895FC01848DDF01A80FB11DA35ABF4F42
:1003A0002C91848D90E001968F739927848FA68974
:1003B000B7892C93A089B1898C91837080648C93C8
:1003C000938D848D981306C00288F389E02D808177
:1003D0008F7D80830895EF92FF920F931F93CF93A9
:1003E000DF93EC0181E0888F9B8D8C8D981305C085
:1003F000E889F989808185FD26C0F62E0B8D10E0F5
:100400000F5F1F4F0F731127E02E8C8DE8120CC069
:100410000FB607FCFACFE889F989808185FFF5CF0F
:10042000CE010E94C901F1CF8B8DFE01E80FF11DB5
:10043000E35AFF4FF0829FB7F8940B8FEA89FB894C
:10044000808180620AC09FB7F894EE89FF8960833B
:10045000E889F98980818370806480839FBF81E00F
:1004600090E0DF91CF911F910F91FF90EF90089551
:10047000CF93DF93EC01888D8823C9F0EA89FB894B
:10048000808185FD05C0A889B9898C9186FD0FC042
:100490000FB607FCF5CF808185FFF2CFA889B98917
:1004A0008C9185FFEDCFCE010E94C901E7CFDF918E
:1004B000CF91089580E090E0892B29F00E94BF0140
:1004C00081110C9400000895009769F0FC010190DF
:1004D0000020E9F73197AF01481B590BBC0185E2B9
:1004E00091E00C94540180E090E008950E94D705BB
:1004F0001F920F920FB60F9211242F933F938F9359
:100500009F93AF93BF9380911D0190911E01A09185
:100510001F01B091200130911C0123E0230F2D37E2
:1005200020F40196A11DB11D05C026E8230F0296F7
:10053000A11DB11D20931C0180931D0190931E01EC
:10054000A0931F01B093200180912101909122017D
:10055000A0912301B09124010196A11DB11D8093AA
:10056000210190932201A0932301B0932401BF9114
:10057000AF919F918F913F912F910F900FBE0F9050
:100580001F9018951F920F920FB60F9211242F9360
:100590003F934F935F936F937F938F939F93AF930B
:1005A000BF93EF93FF9385E291E00E94C901FF9111
:1005B000EF91BF91AF919F918F917F916F915F91DB
:1005C0004F913F912F910F900FBE0F901F90189554
:1005D0001F920F920FB60F9211242F938F939F9318
:1005E000EF93FF93E0913501F09136018081E09126
:1005F0003B01F0913C0182FD12C0908180913E014F
:100600008F5F8F7320913F01821751F0E0913E017F
:10061000F0E0EB5DFE4F958F80933E0101C080813D
:10062000FF91EF919F918F912F910F900FBE0F909F
:100630001F9018951F920F920FB60F9211242F93AF
:100640003F934F935F936F937F938F939F93AF935A
:10065000BF93EF93FF93E0E0F0E00995FF91EF91F6
:10066000BF91AF919F918F917F916F915F914F91CA
:100670003F912F910F900FBE0F901F901895E5E2BC
:10068000F1E01382128288EE93E0A0E0B0E0848370
:100690009583A683B78384E091E09183808385EC82
:1006A00090E09587848784EC90E09787868780EC3C
:1006B00090E0918B808B81EC90E0938B828B82EC2D
:1006C00090E0958B848B86EC90E0978B868B118ED7
:1006D000128E138E148EE4EBF0E0E491A2ECB1E004
:1006E0001496EC931497E5EBF0E0E4911596EC93F7
:1006F000159780EA90E0FC012491E22FF0E0EE0FE4
:10070000FF1FE057FF4F2591349117963C932E938E
:100710001697E1EAF0E0E491F0E0EE0FFF1FEA57F0
:10072000FF4F2591349119963C932E931897FC0115
:100730008491E82FF0E0EE0FFF1FE458FF4F859102
:1007400094911B969C938E931A9781EC9CE21D9634
:100750009C938E931C970895CF93DF93CDB7DEB70C
:10076000A1970FB6F894DEBF0FBECDBF789484B5C5
:10077000826084BD84B5816084BD85B5826085BD9D
:1007800085B5816085BD80916E00816080936E002B
:10079000109281008091810082608093810080911D
:1007A00081008160809381008091800081608093CE
:1007B00080008091B10084608093B1008091B0008E
:1007C00081608093B00080917A00846080937A0089
:1007D00080917A00826080937A0080917A008160B3
:1007E00080937A0080917A00806880937A001092DA
:1007F000C10085E00E948C00E0913501F091360146
:1008000082E08083E0913101F09132011082E09129
:100810003301F09134018FEC808310923D01E0911F
:100820003901F0913A0186E08083E0913701F0913F
:100830003801808180618083E0913701F091380137
:10084000808188608083E0913701F0913801808158
:1008500080688083E0913701F091380180818F7D3D
:10086000808383E2282E312C99E3492E512C612C70
:10087000712C2AE0C22ED12CE12CF12CE091CC017C
:10088000F091CD0190818091C601892B8083E09108
:10089000C801F091C90190818091C601809589239A
:1008A00080838BE090E00197F1F7E091C801F0912F
:1008B000C90190818091C601892B8083C101019774
:1008C000F1F7E091C801F091C90190818091C601D2
:1008D000809589238083E091CC01F091CD019081B6
:1008E0008091C601809589238083E091CA01F091AF
:1008F000CB0190818091C701892309F02DC10E940D
:10090000F8002091CE013091CF01890120E030E044
:100910000855194E2F4F3F4FDC01CB01800F911F1F
:10092000A21FB31F8093D0019093D101A093D20155
:10093000B093D301E091CA01F091CB0190818091F5
:10094000C701892381F40E94F8000091D001109121
:10095000D1012091D2013091D30106171707280742
:10096000390740F7F9C00E94F8002091CE0130917C
:10097000CF01DC01CB01820F931FA11DB11D80931C
:10098000D0019093D101A093D201B093D301E09113
:10099000CA01F091CB0190818091C701892381F038
:1009A0000E94F8000091D0011091D1012091D20154
:1009B0003091D301061717072807390740F7CCC035
:1009C0000E94F8002091CE013091CF01A90145503D
:1009D00051092091D0013091D101FA01E21BF30BB2
:1009E000AF01460F571FBA0180E090E0A3019201CA
:1009F0000E94AF0549015A0130931B0120931A014F
:100A00000E941D01F5E0F89D8001F99D100D112453
:100A100085E00E948C000115110511F460E004C00E
:100A20000F3F110529F461E085E00E94AB0043C04F
:100A3000EDE6F0E084918330F9F048F48130B9F0CC
:100A40008230A1F584B5806284BD08BD34C0873092
:100A5000E9F0883019F1843049F580918000806296
:100A60008093800010938B0000938A0024C084B58B
:100A7000806884BD07BD1FC080918000806880931E
:100A80008000109389000093880015C08091B00009
:100A900080688093B0000093B3000DC08091B000D7
:100AA00080628093B0000093B40005C00038110547
:100AB0000CF0B9CFB3CF0E941D0180901A01909025
:100AC0001B01092C000CAA08BB08B7FE20C06DE270
:100AD00085E291E00E94EB0122273327A901281922
:100AE00039094A095B0919A28E010F5D1F4FCA011E
:100AF000B901A70196010E94AF05605DF8016293FC
:100B00008F01211531054105510589F715C0A50152
:100B1000940119A28E010F5D1F4FCA01B901A701EF
:100B200096010E94AF05605DF80162938F01211567
:100B300031054105510589F7C8010E94640242E070
:100B400050E062E171E085E291E00E9454010E9470
:100B50001D010E945A0292CE40E050E044CFA1E233
:100B60001A2EAA1BBB1BFD010DC0AA1FBB1FEE1F27
:100B7000FF1FA217B307E407F50720F0A21BB30B72
:100B8000E40BF50B661F771F881F991F1A9469F7EE
:100B900060957095809590959B01AC01BD01CF014A
:100BA0000895EE0FFF1F0590F491E02D099481E068
:0C0BB00090E0F8940C94DC05F894FFCF62
:100BBC0000000000EB01540182013802B3019101E5
:060BCC00A5010D0A000066
:00000001FF
